{
	"data": {
		"bytecode": {
			"linkReferences": {},
			"object": "6080604052674563918244f400005f553480156019575f5ffd5b5061062e806100275f395ff3fe60806040526004361061003e575f3560e01c80630d8e6e2c146100425780636e5b6b281461006c57806398d5fdca146100a8578063b60d4288146100d2575b5f5ffd5b34801561004d575f5ffd5b506100566100dc565b60405161006391906102a5565b60405180910390f35b348015610077575f5ffd5b50610092600480360381019061008d91906102ec565b610163565b60405161009f91906102a5565b60405180910390f35b3480156100b3575f5ffd5b506100bc61019b565b6040516100c991906102a5565b60405180910390f35b6100da610240565b005b5f73694aa1769357215de4fac081bf1f309adc32530673ffffffffffffffffffffffffffffffffffffffff166354fd4d506040518163ffffffff1660e01b8152600401602060405180830381865afa15801561013a573d5f5f3e3d5ffd5b505050506040513d601f19601f8201168201806040525081019061015e919061032b565b905090565b5f5f61016d61019b565b90505f670de0b6b3a764000084836101859190610383565b61018f91906103f1565b90508092505050919050565b5f5f73694aa1769357215de4fac081bf1f309adc32530690505f8173ffffffffffffffffffffffffffffffffffffffff1663feaf968c6040518163ffffffff1660e01b815260040160a060405180830381865afa1580156101fe573d5f5f3e3d5ffd5b505050506040513d601f19601f820116820180604052508101906102229190610493565b5050509150506402540be40081610239919061050a565b9250505090565b5f5461024b34610163565b1161028b576040517f08c379a0000000000000000000000000000000000000000000000000000000008152600401610282906105da565b60405180910390fd5b565b5f819050919050565b61029f8161028d565b82525050565b5f6020820190506102b85f830184610296565b92915050565b5f5ffd5b6102cb8161028d565b81146102d5575f5ffd5b50565b5f813590506102e6816102c2565b92915050565b5f60208284031215610301576103006102be565b5b5f61030e848285016102d8565b91505092915050565b5f81519050610325816102c2565b92915050565b5f602082840312156103405761033f6102be565b5b5f61034d84828501610317565b91505092915050565b7f4e487b71000000000000000000000000000000000000000000000000000000005f52601160045260245ffd5b5f61038d8261028d565b91506103988361028d565b92508282026103a68161028d565b915082820484148315176103bd576103bc610356565b5b5092915050565b7f4e487b71000000000000000000000000000000000000000000000000000000005f52601260045260245ffd5b5f6103fb8261028d565b91506104068361028d565b925082610416576104156103c4565b5b828204905092915050565b5f69ffffffffffffffffffff82169050919050565b61043f81610421565b8114610449575f5ffd5b50565b5f8151905061045a81610436565b92915050565b5f819050919050565b61047281610460565b811461047c575f5ffd5b50565b5f8151905061048d81610469565b92915050565b5f5f5f5f5f60a086880312156104ac576104ab6102be565b5b5f6104b98882890161044c565b95505060206104ca8882890161047f565b94505060406104db88828901610317565b93505060606104ec88828901610317565b92505060806104fd8882890161044c565b9150509295509295909350565b5f61051482610460565b915061051f83610460565b925082820261052d81610460565b91507f800000000000000000000000000000000000000000000000000000000000000084145f8412161561056457610563610356565b5b828205841483151761057957610578610356565b5b5092915050565b5f82825260208201905092915050565b7f6469646e742073656e7420726e6f7567682065746800000000000000000000005f82015250565b5f6105c4601583610580565b91506105cf82610590565b602082019050919050565b5f6020820190508181035f8301526105f1816105b8565b905091905056fea26469706673582212200b33c7ef57f4cc4ab790dba9e6487549395a161176ae4abd97f1978e48f3d65f64736f6c634300081b0033",
			"opcodes": "PUSH1 0x80 PUSH1 0x40 MSTORE PUSH8 0x4563918244F40000 PUSH0 SSTORE CALLVALUE DUP1 ISZERO PUSH1 0x19 JUMPI PUSH0 PUSH0 REVERT JUMPDEST POP PUSH2 0x62E DUP1 PUSH2 0x27 PUSH0 CODECOPY PUSH0 RETURN INVALID PUSH1 0x80 PUSH1 0x40 MSTORE PUSH1 0x4 CALLDATASIZE LT PUSH2 0x3E JUMPI PUSH0 CALLDATALOAD PUSH1 0xE0 SHR DUP1 PUSH4 0xD8E6E2C EQ PUSH2 0x42 JUMPI DUP1 PUSH4 0x6E5B6B28 EQ PUSH2 0x6C JUMPI DUP1 PUSH4 0x98D5FDCA EQ PUSH2 0xA8 JUMPI DUP1 PUSH4 0xB60D4288 EQ PUSH2 0xD2 JUMPI JUMPDEST PUSH0 PUSH0 REVERT JUMPDEST CALLVALUE DUP1 ISZERO PUSH2 0x4D JUMPI PUSH0 PUSH0 REVERT JUMPDEST POP PUSH2 0x56 PUSH2 0xDC JUMP JUMPDEST PUSH1 0x40 MLOAD PUSH2 0x63 SWAP2 SWAP1 PUSH2 0x2A5 JUMP JUMPDEST PUSH1 0x40 MLOAD DUP1 SWAP2 SUB SWAP1 RETURN JUMPDEST CALLVALUE DUP1 ISZERO PUSH2 0x77 JUMPI PUSH0 PUSH0 REVERT JUMPDEST POP PUSH2 0x92 PUSH1 0x4 DUP1 CALLDATASIZE SUB DUP2 ADD SWAP1 PUSH2 0x8D SWAP2 SWAP1 PUSH2 0x2EC JUMP JUMPDEST PUSH2 0x163 JUMP JUMPDEST PUSH1 0x40 MLOAD PUSH2 0x9F SWAP2 SWAP1 PUSH2 0x2A5 JUMP JUMPDEST PUSH1 0x40 MLOAD DUP1 SWAP2 SUB SWAP1 RETURN JUMPDEST CALLVALUE DUP1 ISZERO PUSH2 0xB3 JUMPI PUSH0 PUSH0 REVERT JUMPDEST POP PUSH2 0xBC PUSH2 0x19B JUMP JUMPDEST PUSH1 0x40 MLOAD PUSH2 0xC9 SWAP2 SWAP1 PUSH2 0x2A5 JUMP JUMPDEST PUSH1 0x40 MLOAD DUP1 SWAP2 SUB SWAP1 RETURN JUMPDEST PUSH2 0xDA PUSH2 0x240 JUMP JUMPDEST STOP JUMPDEST PUSH0 PUSH20 0x694AA1769357215DE4FAC081BF1F309ADC325306 PUSH20 0xFFFFFFFFFFFFFFFFFFFFFFFFFFFFFFFFFFFFFFFF AND PUSH4 0x54FD4D50 PUSH1 0x40 MLOAD DUP2 PUSH4 0xFFFFFFFF AND PUSH1 0xE0 SHL DUP2 MSTORE PUSH1 0x4 ADD PUSH1 0x20 PUSH1 0x40 MLOAD DUP1 DUP4 SUB DUP2 DUP7 GAS STATICCALL ISZERO DUP1 ISZERO PUSH2 0x13A JUMPI RETURNDATASIZE PUSH0 PUSH0 RETURNDATACOPY RETURNDATASIZE PUSH0 REVERT JUMPDEST POP POP POP POP PUSH1 0x40 MLOAD RETURNDATASIZE PUSH1 0x1F NOT PUSH1 0x1F DUP3 ADD AND DUP3 ADD DUP1 PUSH1 0x40 MSTORE POP DUP2 ADD SWAP1 PUSH2 0x15E SWAP2 SWAP1 PUSH2 0x32B JUMP JUMPDEST SWAP1 POP SWAP1 JUMP JUMPDEST PUSH0 PUSH0 PUSH2 0x16D PUSH2 0x19B JUMP JUMPDEST SWAP1 POP PUSH0 PUSH8 0xDE0B6B3A7640000 DUP5 DUP4 PUSH2 0x185 SWAP2 SWAP1 PUSH2 0x383 JUMP JUMPDEST PUSH2 0x18F SWAP2 SWAP1 PUSH2 0x3F1 JUMP JUMPDEST SWAP1 POP DUP1 SWAP3 POP POP POP SWAP2 SWAP1 POP JUMP JUMPDEST PUSH0 PUSH0 PUSH20 0x694AA1769357215DE4FAC081BF1F309ADC325306 SWAP1 POP PUSH0 DUP2 PUSH20 0xFFFFFFFFFFFFFFFFFFFFFFFFFFFFFFFFFFFFFFFF AND PUSH4 0xFEAF968C PUSH1 0x40 MLOAD DUP2 PUSH4 0xFFFFFFFF AND PUSH1 0xE0 SHL DUP2 MSTORE PUSH1 0x4 ADD PUSH1 0xA0 PUSH1 0x40 MLOAD DUP1 DUP4 SUB DUP2 DUP7 GAS STATICCALL ISZERO DUP1 ISZERO PUSH2 0x1FE JUMPI RETURNDATASIZE PUSH0 PUSH0 RETURNDATACOPY RETURNDATASIZE PUSH0 REVERT JUMPDEST POP POP POP POP PUSH1 0x40 MLOAD RETURNDATASIZE PUSH1 0x1F NOT PUSH1 0x1F DUP3 ADD AND DUP3 ADD DUP1 PUSH1 0x40 MSTORE POP DUP2 ADD SWAP1 PUSH2 0x222 SWAP2 SWAP1 PUSH2 0x493 JUMP JUMPDEST POP POP POP SWAP2 POP POP PUSH5 0x2540BE400 DUP2 PUSH2 0x239 SWAP2 SWAP1 PUSH2 0x50A JUMP JUMPDEST SWAP3 POP POP POP SWAP1 JUMP JUMPDEST PUSH0 SLOAD PUSH2 0x24B CALLVALUE PUSH2 0x163 JUMP JUMPDEST GT PUSH2 0x28B JUMPI PUSH1 0x40 MLOAD PUSH32 0x8C379A000000000000000000000000000000000000000000000000000000000 DUP2 MSTORE PUSH1 0x4 ADD PUSH2 0x282 SWAP1 PUSH2 0x5DA JUMP JUMPDEST PUSH1 0x40 MLOAD DUP1 SWAP2 SUB SWAP1 REVERT JUMPDEST JUMP JUMPDEST PUSH0 DUP2 SWAP1 POP SWAP2 SWAP1 POP JUMP JUMPDEST PUSH2 0x29F DUP2 PUSH2 0x28D JUMP JUMPDEST DUP3 MSTORE POP POP JUMP JUMPDEST PUSH0 PUSH1 0x20 DUP3 ADD SWAP1 POP PUSH2 0x2B8 PUSH0 DUP4 ADD DUP5 PUSH2 0x296 JUMP JUMPDEST SWAP3 SWAP2 POP POP JUMP JUMPDEST PUSH0 PUSH0 REVERT JUMPDEST PUSH2 0x2CB DUP2 PUSH2 0x28D JUMP JUMPDEST DUP2 EQ PUSH2 0x2D5 JUMPI PUSH0 PUSH0 REVERT JUMPDEST POP JUMP JUMPDEST PUSH0 DUP2 CALLDATALOAD SWAP1 POP PUSH2 0x2E6 DUP2 PUSH2 0x2C2 JUMP JUMPDEST SWAP3 SWAP2 POP POP JUMP JUMPDEST PUSH0 PUSH1 0x20 DUP3 DUP5 SUB SLT ISZERO PUSH2 0x301 JUMPI PUSH2 0x300 PUSH2 0x2BE JUMP JUMPDEST JUMPDEST PUSH0 PUSH2 0x30E DUP5 DUP3 DUP6 ADD PUSH2 0x2D8 JUMP JUMPDEST SWAP2 POP POP SWAP3 SWAP2 POP POP JUMP JUMPDEST PUSH0 DUP2 MLOAD SWAP1 POP PUSH2 0x325 DUP2 PUSH2 0x2C2 JUMP JUMPDEST SWAP3 SWAP2 POP POP JUMP JUMPDEST PUSH0 PUSH1 0x20 DUP3 DUP5 SUB SLT ISZERO PUSH2 0x340 JUMPI PUSH2 0x33F PUSH2 0x2BE JUMP JUMPDEST JUMPDEST PUSH0 PUSH2 0x34D DUP5 DUP3 DUP6 ADD PUSH2 0x317 JUMP JUMPDEST SWAP2 POP POP SWAP3 SWAP2 POP POP JUMP JUMPDEST PUSH32 0x4E487B7100000000000000000000000000000000000000000000000000000000 PUSH0 MSTORE PUSH1 0x11 PUSH1 0x4 MSTORE PUSH1 0x24 PUSH0 REVERT JUMPDEST PUSH0 PUSH2 0x38D DUP3 PUSH2 0x28D JUMP JUMPDEST SWAP2 POP PUSH2 0x398 DUP4 PUSH2 0x28D JUMP JUMPDEST SWAP3 POP DUP3 DUP3 MUL PUSH2 0x3A6 DUP2 PUSH2 0x28D JUMP JUMPDEST SWAP2 POP DUP3 DUP3 DIV DUP5 EQ DUP4 ISZERO OR PUSH2 0x3BD JUMPI PUSH2 0x3BC PUSH2 0x356 JUMP JUMPDEST JUMPDEST POP SWAP3 SWAP2 POP POP JUMP JUMPDEST PUSH32 0x4E487B7100000000000000000000000000000000000000000000000000000000 PUSH0 MSTORE PUSH1 0x12 PUSH1 0x4 MSTORE PUSH1 0x24 PUSH0 REVERT JUMPDEST PUSH0 PUSH2 0x3FB DUP3 PUSH2 0x28D JUMP JUMPDEST SWAP2 POP PUSH2 0x406 DUP4 PUSH2 0x28D JUMP JUMPDEST SWAP3 POP DUP3 PUSH2 0x416 JUMPI PUSH2 0x415 PUSH2 0x3C4 JUMP JUMPDEST JUMPDEST DUP3 DUP3 DIV SWAP1 POP SWAP3 SWAP2 POP POP JUMP JUMPDEST PUSH0 PUSH10 0xFFFFFFFFFFFFFFFFFFFF DUP3 AND SWAP1 POP SWAP2 SWAP1 POP JUMP JUMPDEST PUSH2 0x43F DUP2 PUSH2 0x421 JUMP JUMPDEST DUP2 EQ PUSH2 0x449 JUMPI PUSH0 PUSH0 REVERT JUMPDEST POP JUMP JUMPDEST PUSH0 DUP2 MLOAD SWAP1 POP PUSH2 0x45A DUP2 PUSH2 0x436 JUMP JUMPDEST SWAP3 SWAP2 POP POP JUMP JUMPDEST PUSH0 DUP2 SWAP1 POP SWAP2 SWAP1 POP JUMP JUMPDEST PUSH2 0x472 DUP2 PUSH2 0x460 JUMP JUMPDEST DUP2 EQ PUSH2 0x47C JUMPI PUSH0 PUSH0 REVERT JUMPDEST POP JUMP JUMPDEST PUSH0 DUP2 MLOAD SWAP1 POP PUSH2 0x48D DUP2 PUSH2 0x469 JUMP JUMPDEST SWAP3 SWAP2 POP POP JUMP JUMPDEST PUSH0 PUSH0 PUSH0 PUSH0 PUSH0 PUSH1 0xA0 DUP7 DUP9 SUB SLT ISZERO PUSH2 0x4AC JUMPI PUSH2 0x4AB PUSH2 0x2BE JUMP JUMPDEST JUMPDEST PUSH0 PUSH2 0x4B9 DUP9 DUP3 DUP10 ADD PUSH2 0x44C JUMP JUMPDEST SWAP6 POP POP PUSH1 0x20 PUSH2 0x4CA DUP9 DUP3 DUP10 ADD PUSH2 0x47F JUMP JUMPDEST SWAP5 POP POP PUSH1 0x40 PUSH2 0x4DB DUP9 DUP3 DUP10 ADD PUSH2 0x317 JUMP JUMPDEST SWAP4 POP POP PUSH1 0x60 PUSH2 0x4EC DUP9 DUP3 DUP10 ADD PUSH2 0x317 JUMP JUMPDEST SWAP3 POP POP PUSH1 0x80 PUSH2 0x4FD DUP9 DUP3 DUP10 ADD PUSH2 0x44C JUMP JUMPDEST SWAP2 POP POP SWAP3 SWAP6 POP SWAP3 SWAP6 SWAP1 SWAP4 POP JUMP JUMPDEST PUSH0 PUSH2 0x514 DUP3 PUSH2 0x460 JUMP JUMPDEST SWAP2 POP PUSH2 0x51F DUP4 PUSH2 0x460 JUMP JUMPDEST SWAP3 POP DUP3 DUP3 MUL PUSH2 0x52D DUP2 PUSH2 0x460 JUMP JUMPDEST SWAP2 POP PUSH32 0x8000000000000000000000000000000000000000000000000000000000000000 DUP5 EQ PUSH0 DUP5 SLT AND ISZERO PUSH2 0x564 JUMPI PUSH2 0x563 PUSH2 0x356 JUMP JUMPDEST JUMPDEST DUP3 DUP3 SDIV DUP5 EQ DUP4 ISZERO OR PUSH2 0x579 JUMPI PUSH2 0x578 PUSH2 0x356 JUMP JUMPDEST JUMPDEST POP SWAP3 SWAP2 POP POP JUMP JUMPDEST PUSH0 DUP3 DUP3 MSTORE PUSH1 0x20 DUP3 ADD SWAP1 POP SWAP3 SWAP2 POP POP JUMP JUMPDEST PUSH32 0x6469646E742073656E7420726E6F756768206574680000000000000000000000 PUSH0 DUP3 ADD MSTORE POP JUMP JUMPDEST PUSH0 PUSH2 0x5C4 PUSH1 0x15 DUP4 PUSH2 0x580 JUMP JUMPDEST SWAP2 POP PUSH2 0x5CF DUP3 PUSH2 0x590 JUMP JUMPDEST PUSH1 0x20 DUP3 ADD SWAP1 POP SWAP2 SWAP1 POP JUMP JUMPDEST PUSH0 PUSH1 0x20 DUP3 ADD SWAP1 POP DUP2 DUP2 SUB PUSH0 DUP4 ADD MSTORE PUSH2 0x5F1 DUP2 PUSH2 0x5B8 JUMP JUMPDEST SWAP1 POP SWAP2 SWAP1 POP JUMP INVALID LOG2 PUSH5 0x6970667358 0x22 SLT KECCAK256 SIGNEXTEND CALLER 0xC7 0xEF JUMPI DELEGATECALL 0xCC BLOBBASEFEE 0xB7 SWAP1 0xDB 0xA9 0xE6 BASEFEE PUSH22 0x49395A161176AE4ABD97F1978E48F3D65F64736F6C63 NUMBER STOP ADDMOD SHL STOP CALLER "
		},
		"gasEstimates": {
			"creation": {
				"codeDepositCost": "316400",
				"executionCost": "22458",
				"totalCost": "338858"
			},
			"external": {
				"fund()": "infinite",
				"getConversionRate(uint256)": "infinite",
				"getPrice()": "infinite",
				"getVersion()": "infinite"
			}
		},
		"methodIdentifiers": {
			"fund()": "b60d4288",
			"getConversionRate(uint256)": "6e5b6b28",
			"getPrice()": "98d5fdca",
			"getVersion()": "0d8e6e2c"
		}
	},
	"abi": [
		{
			"inputs": [],
			"name": "fund",
			"outputs": [],
			"stateMutability": "payable",
			"type": "function"
		},
		{
			"inputs": [
				{
					"internalType": "uint256",
					"name": "ethAmount",
					"type": "uint256"
				}
			],
			"name": "getConversionRate",
			"outputs": [
				{
					"internalType": "uint256",
					"name": "",
					"type": "uint256"
				}
			],
			"stateMutability": "view",
			"type": "function"
		},
		{
			"inputs": [],
			"name": "getPrice",
			"outputs": [
				{
					"internalType": "uint256",
					"name": "",
					"type": "uint256"
				}
			],
			"stateMutability": "view",
			"type": "function"
		},
		{
			"inputs": [],
			"name": "getVersion",
			"outputs": [
				{
					"internalType": "uint256",
					"name": "",
					"type": "uint256"
				}
			],
			"stateMutability": "view",
			"type": "function"
		}
	]
}